{
    "_format": "hh-sol-artifact-1",
    "contractName": "LairryFinkFund",
    "sourceName": "contracts/LairryFink.sol",
    "abi": [
        {
            "inputs": [
                {
                    "internalType": "address",
                    "name": "_wethAddress",
                    "type": "address"
                },
                {
                    "internalType": "string",
                    "name": "_shareTokenName",
                    "type": "string"
                },
                {
                    "internalType": "string",
                    "name": "_shareTokenSymbol",
                    "type": "string"
                },
                {
                    "internalType": "address",
                    "name": "_uniswapV2Router02Address",
                    "type": "address"
                },
                {
                    "internalType": "uint256",
                    "name": "_deadlineOffset",
                    "type": "uint256"
                },
                {
                    "internalType": "bool",
                    "name": "_depositsEnabled",
                    "type": "bool"
                },
                {
                    "internalType": "uint256",
                    "name": "_minimumDeposit",
                    "type": "uint256"
                },
                {
                    "internalType": "uint256",
                    "name": "_slippageTolerance",
                    "type": "uint256"
                },
                {
                    "internalType": "uint256",
                    "name": "_depositFee",
                    "type": "uint256"
                }
            ],
            "stateMutability": "nonpayable",
            "type": "constructor"
        },
        {
            "inputs": [
                {
                    "internalType": "address",
                    "name": "owner",
                    "type": "address"
                }
            ],
            "name": "OwnableInvalidOwner",
            "type": "error"
        },
        {
            "inputs": [
                {
                    "internalType": "address",
                    "name": "account",
                    "type": "address"
                }
            ],
            "name": "OwnableUnauthorizedAccount",
            "type": "error"
        },
        {
            "anonymous": false,
            "inputs": [
                {
                    "indexed": true,
                    "internalType": "address",
                    "name": "tokenAddress",
                    "type": "address"
                },
                {
                    "indexed": false,
                    "internalType": "uint256",
                    "name": "newAllocation",
                    "type": "uint256"
                }
            ],
            "name": "Allocation",
            "type": "event"
        },
        {
            "anonymous": false,
            "inputs": [
                {
                    "indexed": true,
                    "internalType": "address",
                    "name": "depositor",
                    "type": "address"
                },
                {
                    "indexed": false,
                    "internalType": "uint256",
                    "name": "shares",
                    "type": "uint256"
                },
                {
                    "indexed": false,
                    "internalType": "uint256",
                    "name": "shareValue",
                    "type": "uint256"
                }
            ],
            "name": "Deposit",
            "type": "event"
        },
        {
            "anonymous": false,
            "inputs": [
                {
                    "indexed": true,
                    "internalType": "address",
                    "name": "previousOwner",
                    "type": "address"
                },
                {
                    "indexed": true,
                    "internalType": "address",
                    "name": "newOwner",
                    "type": "address"
                }
            ],
            "name": "OwnershipTransferred",
            "type": "event"
        },
        {
            "anonymous": false,
            "inputs": [
                {
                    "indexed": true,
                    "internalType": "address",
                    "name": "shareholder",
                    "type": "address"
                },
                {
                    "indexed": false,
                    "internalType": "address",
                    "name": "to",
                    "type": "address"
                },
                {
                    "indexed": false,
                    "internalType": "uint256",
                    "name": "shares",
                    "type": "uint256"
                },
                {
                    "indexed": false,
                    "internalType": "uint256",
                    "name": "shareValue",
                    "type": "uint256"
                }
            ],
            "name": "Withdraw",
            "type": "event"
        },
        {
            "stateMutability": "payable",
            "type": "fallback"
        },
        {
            "inputs": [],
            "name": "deposit",
            "outputs": [],
            "stateMutability": "payable",
            "type": "function"
        },
        {
            "inputs": [],
            "name": "getCreationDepositFee",
            "outputs": [
                {
                    "internalType": "uint256",
                    "name": "",
                    "type": "uint256"
                }
            ],
            "stateMutability": "view",
            "type": "function"
        },
        {
            "inputs": [],
            "name": "getDeadlineOffset",
            "outputs": [
                {
                    "internalType": "uint256",
                    "name": "",
                    "type": "uint256"
                }
            ],
            "stateMutability": "view",
            "type": "function"
        },
        {
            "inputs": [],
            "name": "getDepositFee",
            "outputs": [
                {
                    "internalType": "uint256",
                    "name": "",
                    "type": "uint256"
                }
            ],
            "stateMutability": "view",
            "type": "function"
        },
        {
            "inputs": [],
            "name": "getDepositFeeBalance",
            "outputs": [
                {
                    "internalType": "uint256",
                    "name": "",
                    "type": "uint256"
                }
            ],
            "stateMutability": "view",
            "type": "function"
        },
        {
            "inputs": [],
            "name": "getDepositsEnabled",
            "outputs": [
                {
                    "internalType": "bool",
                    "name": "",
                    "type": "bool"
                }
            ],
            "stateMutability": "view",
            "type": "function"
        },
        {
            "inputs": [],
            "name": "getMinimumDeposit",
            "outputs": [
                {
                    "internalType": "uint256",
                    "name": "",
                    "type": "uint256"
                }
            ],
            "stateMutability": "view",
            "type": "function"
        },
        {
            "inputs": [],
            "name": "getNetAssetValue",
            "outputs": [
                {
                    "internalType": "uint256",
                    "name": "",
                    "type": "uint256"
                }
            ],
            "stateMutability": "view",
            "type": "function"
        },
        {
            "inputs": [],
            "name": "getPortfolio",
            "outputs": [
                {
                    "internalType": "address[]",
                    "name": "",
                    "type": "address[]"
                },
                {
                    "internalType": "uint256[]",
                    "name": "",
                    "type": "uint256[]"
                },
                {
                    "internalType": "string[]",
                    "name": "",
                    "type": "string[]"
                },
                {
                    "internalType": "uint256[]",
                    "name": "",
                    "type": "uint256[]"
                },
                {
                    "internalType": "uint256[]",
                    "name": "",
                    "type": "uint256[]"
                }
            ],
            "stateMutability": "view",
            "type": "function"
        },
        {
            "inputs": [],
            "name": "getReserveTokenAddress",
            "outputs": [
                {
                    "internalType": "address",
                    "name": "",
                    "type": "address"
                }
            ],
            "stateMutability": "view",
            "type": "function"
        },
        {
            "inputs": [],
            "name": "getReserveTokenBalance",
            "outputs": [
                {
                    "internalType": "uint256",
                    "name": "",
                    "type": "uint256"
                }
            ],
            "stateMutability": "view",
            "type": "function"
        },
        {
            "inputs": [
                {
                    "internalType": "address",
                    "name": "shareholder",
                    "type": "address"
                }
            ],
            "name": "getShareBalance",
            "outputs": [
                {
                    "internalType": "uint256",
                    "name": "",
                    "type": "uint256"
                }
            ],
            "stateMutability": "view",
            "type": "function"
        },
        {
            "inputs": [],
            "name": "getSharePrice",
            "outputs": [
                {
                    "internalType": "uint256",
                    "name": "",
                    "type": "uint256"
                }
            ],
            "stateMutability": "view",
            "type": "function"
        },
        {
            "inputs": [],
            "name": "getShareTokenAddress",
            "outputs": [
                {
                    "internalType": "address",
                    "name": "",
                    "type": "address"
                }
            ],
            "stateMutability": "view",
            "type": "function"
        },
        {
            "inputs": [],
            "name": "getSharesOutstanding",
            "outputs": [
                {
                    "internalType": "uint256",
                    "name": "",
                    "type": "uint256"
                }
            ],
            "stateMutability": "view",
            "type": "function"
        },
        {
            "inputs": [],
            "name": "getSlippageTolerance",
            "outputs": [
                {
                    "internalType": "uint256",
                    "name": "",
                    "type": "uint256"
                }
            ],
            "stateMutability": "view",
            "type": "function"
        },
        {
            "inputs": [],
            "name": "getTotalAllocation",
            "outputs": [
                {
                    "internalType": "uint256",
                    "name": "",
                    "type": "uint256"
                }
            ],
            "stateMutability": "view",
            "type": "function"
        },
        {
            "inputs": [],
            "name": "owner",
            "outputs": [
                {
                    "internalType": "address",
                    "name": "",
                    "type": "address"
                }
            ],
            "stateMutability": "view",
            "type": "function"
        },
        {
            "inputs": [],
            "name": "renounceOwnership",
            "outputs": [],
            "stateMutability": "nonpayable",
            "type": "function"
        },
        {
            "inputs": [
                {
                    "internalType": "address",
                    "name": "tokenAddress",
                    "type": "address"
                },
                {
                    "internalType": "uint256",
                    "name": "_allocation",
                    "type": "uint256"
                }
            ],
            "name": "setAllocation",
            "outputs": [],
            "stateMutability": "nonpayable",
            "type": "function"
        },
        {
            "inputs": [
                {
                    "internalType": "uint256",
                    "name": "_deadlineOffset",
                    "type": "uint256"
                }
            ],
            "name": "setDeadlineOffset",
            "outputs": [],
            "stateMutability": "nonpayable",
            "type": "function"
        },
        {
            "inputs": [
                {
                    "internalType": "uint256",
                    "name": "_depositFee",
                    "type": "uint256"
                }
            ],
            "name": "setDepositFee",
            "outputs": [],
            "stateMutability": "nonpayable",
            "type": "function"
        },
        {
            "inputs": [
                {
                    "internalType": "bool",
                    "name": "_depositsEnabled",
                    "type": "bool"
                }
            ],
            "name": "setDepositsEnabled",
            "outputs": [],
            "stateMutability": "nonpayable",
            "type": "function"
        },
        {
            "inputs": [
                {
                    "internalType": "uint256",
                    "name": "_minimumDeposit",
                    "type": "uint256"
                }
            ],
            "name": "setMinimumDeposit",
            "outputs": [],
            "stateMutability": "nonpayable",
            "type": "function"
        },
        {
            "inputs": [
                {
                    "internalType": "uint256",
                    "name": "_slippageTolerance",
                    "type": "uint256"
                }
            ],
            "name": "setSlippageTolerance",
            "outputs": [],
            "stateMutability": "nonpayable",
            "type": "function"
        },
        {
            "inputs": [
                {
                    "internalType": "address",
                    "name": "newOwner",
                    "type": "address"
                }
            ],
            "name": "transferOwnership",
            "outputs": [],
            "stateMutability": "nonpayable",
            "type": "function"
        },
        {
            "inputs": [
                {
                    "internalType": "uint256",
                    "name": "shares",
                    "type": "uint256"
                },
                {
                    "internalType": "address payable",
                    "name": "to",
                    "type": "address"
                }
            ],
            "name": "withdraw",
            "outputs": [],
            "stateMutability": "nonpayable",
            "type": "function"
        },
        {
            "inputs": [
                {
                    "internalType": "address payable",
                    "name": "to",
                    "type": "address"
                },
                {
                    "internalType": "uint256",
                    "name": "amount",
                    "type": "uint256"
                }
            ],
            "name": "withdrawDepositFees",
            "outputs": [],
            "stateMutability": "nonpayable",
            "type": "function"
        },
        {
            "stateMutability": "payable",
            "type": "receive"
        }
    ],
    "bytecode": "0x61010060405234801561001157600080fd5b50604051616917380380616917833981810160405281019061003391906104e5565b33600073ffffffffffffffffffffffffffffffffffffffff168173ffffffffffffffffffffffffffffffffffffffff16036100a65760006040517f1e4fbdf700000000000000000000000000000000000000000000000000000000815260040161009d91906105f6565b60405180910390fd5b6100b5816101d360201b60201c565b508873ffffffffffffffffffffffffffffffffffffffff1660808173ffffffffffffffffffffffffffffffffffffffff168152505087876040516100f890610297565b610103929190610666565b604051809103906000f08015801561011f573d6000803e3d6000fd5b5073ffffffffffffffffffffffffffffffffffffffff1660a08173ffffffffffffffffffffffffffffffffffffffff16815250508573ffffffffffffffffffffffffffffffffffffffff1660e08173ffffffffffffffffffffffffffffffffffffffff16815250508460048190555083600060146101000a81548160ff0219169083151502179055508260018190555081600581905550806002819055508060c0818152505050505050505050505061069d565b60008060009054906101000a900473ffffffffffffffffffffffffffffffffffffffff169050816000806101000a81548173ffffffffffffffffffffffffffffffffffffffff021916908373ffffffffffffffffffffffffffffffffffffffff1602179055508173ffffffffffffffffffffffffffffffffffffffff168173ffffffffffffffffffffffffffffffffffffffff167f8be0079c531659141344cd1fd0a4f28419497f9722a3daafe3b4186f6b6457e060405160405180910390a35050565b61195680614fc183390190565b6000604051905090565b600080fd5b600080fd5b600073ffffffffffffffffffffffffffffffffffffffff82169050919050565b60006102e3826102b8565b9050919050565b6102f3816102d8565b81146102fe57600080fd5b50565b600081519050610310816102ea565b92915050565b600080fd5b600080fd5b6000601f19601f8301169050919050565b7f4e487b7100000000000000000000000000000000000000000000000000000000600052604160045260246000fd5b61036982610320565b810181811067ffffffffffffffff8211171561038857610387610331565b5b80604052505050565b600061039b6102a4565b90506103a78282610360565b919050565b600067ffffffffffffffff8211156103c7576103c6610331565b5b6103d082610320565b9050602081019050919050565b60005b838110156103fb5780820151818401526020810190506103e0565b60008484015250505050565b600061041a610415846103ac565b610391565b9050828152602081018484840111156104365761043561031b565b5b6104418482856103dd565b509392505050565b600082601f83011261045e5761045d610316565b5b815161046e848260208601610407565b91505092915050565b6000819050919050565b61048a81610477565b811461049557600080fd5b50565b6000815190506104a781610481565b92915050565b60008115159050919050565b6104c2816104ad565b81146104cd57600080fd5b50565b6000815190506104df816104b9565b92915050565b60008060008060008060008060006101208a8c031215610508576105076102ae565b5b60006105168c828d01610301565b99505060208a015167ffffffffffffffff811115610537576105366102b3565b5b6105438c828d01610449565b98505060408a015167ffffffffffffffff811115610564576105636102b3565b5b6105708c828d01610449565b97505060606105818c828d01610301565b96505060806105928c828d01610498565b95505060a06105a38c828d016104d0565b94505060c06105b48c828d01610498565b93505060e06105c58c828d01610498565b9250506101006105d78c828d01610498565b9150509295985092959850929598565b6105f0816102d8565b82525050565b600060208201905061060b60008301846105e7565b92915050565b600081519050919050565b600082825260208201905092915050565b600061063882610611565b610642818561061c565b93506106528185602086016103dd565b61065b81610320565b840191505092915050565b60006040820190508181036000830152610680818561062d565b90508181036020830152610694818461062d565b90509392505050565b60805160a05160c05160e05161485f6107626000396000818161080a01528181610df6015281816112cf01528181611dfa0152818161219e0152818161264f0152612a18015260008181610d3c0152610f3f015260008181610a9a01528181610ba201528181610bca0152818161171e0152611f0d0152600081816101c10152818161096101528181610f7c015281816117b40152818161188501528181611af901528181611cbf015281816129dc01528181612d55015261303c015261485f6000f3fe6080604052600436106101ba5760003560e01c806372a960d7116100ec578063c5e2bdc31161008a578063d3d0345811610064578063d3d0345814610661578063e78ec42e14610690578063f2fde38b146106b9578063f82462cf146106e25761024f565b8063c5e2bdc314610603578063c79bd7e81461062e578063d0e30db0146106575761024f565b80639076c166116100c65780639076c1661461055d5780639f04586c14610586578063a9e97207146105af578063b3ce2572146105d85761024f565b806372a960d7146104dc578063770f91f3146105075780638da5cb5b146105325761024f565b806315d3b5d8116101595780635b1dac60116101335780635b1dac60146104445780636639a81d1461046f57806370ee26301461049a578063715018a6146104c55761024f565b806315d3b5d8146103c5578063490ae210146103f05780634a706bdb146104195761024f565b80630de705b5116101955780630de705b51461030957806310680b8414610334578063114379411461035f578063117da1ee1461039c5761024f565b8062f714ce1461028a578063035cf142146102b357806306807597146102de5761024f565b3661024f577f000000000000000000000000000000000000000000000000000000000000000073ffffffffffffffffffffffffffffffffffffffff163373ffffffffffffffffffffffffffffffffffffffff161461024d576040517f08c379a000000000000000000000000000000000000000000000000000000000815260040161024490613161565b60405180910390fd5b005b6040517f08c379a000000000000000000000000000000000000000000000000000000000815260040161028190613161565b60405180910390fd5b34801561029657600080fd5b506102b160048036038101906102ac9190613229565b61070d565b005b3480156102bf57600080fd5b506102c8610b80565b6040516102d59190613278565b60405180910390f35b3480156102ea57600080fd5b506102f3610b8a565b6040516103009190613278565b60405180910390f35b34801561031557600080fd5b5061031e610b94565b60405161032b9190613278565b60405180910390f35b34801561034057600080fd5b50610349610b9e565b60405161035691906132b4565b60405180910390f35b34801561036b57600080fd5b50610386600480360381019061038191906132fb565b610bc6565b6040516103939190613278565b60405180910390f35b3480156103a857600080fd5b506103c360048036038101906103be9190613328565b610c69565b005b3480156103d157600080fd5b506103da610c7b565b6040516103e79190613278565b60405180910390f35b3480156103fc57600080fd5b5061041760048036038101906104129190613328565b610d32565b005b34801561042557600080fd5b5061042e610da7565b60405161043b9190613278565b60405180910390f35b34801561045057600080fd5b50610459610db1565b6040516104669190613278565b60405180910390f35b34801561047b57600080fd5b50610484610df1565b6040516104919190613278565b60405180910390f35b3480156104a657600080fd5b506104af610f3b565b6040516104bc9190613278565b60405180910390f35b3480156104d157600080fd5b506104da610f63565b005b3480156104e857600080fd5b506104f1610f77565b6040516104fe9190613278565b60405180910390f35b34801561051357600080fd5b5061051c61103e565b6040516105299190613370565b60405180910390f35b34801561053e57600080fd5b50610547611054565b60405161055491906132b4565b60405180910390f35b34801561056957600080fd5b50610584600480360381019061057f919061338b565b61107d565b005b34801561059257600080fd5b506105ad60048036038101906105a891906133f7565b6116e3565b005b3480156105bb57600080fd5b506105d660048036038101906105d19190613328565b611708565b005b3480156105e457600080fd5b506105ed61171a565b6040516105fa9190613278565b60405180910390f35b34801561060f57600080fd5b506106186117b0565b60405161062591906132b4565b60405180910390f35b34801561063a57600080fd5b5061065560048036038101906106509190613424565b6117d8565b005b61065f6119bf565b005b34801561066d57600080fd5b50610676611ff3565b604051610687959493929190613732565b60405180910390f35b34801561069c57600080fd5b506106b760048036038101906106b29190613328565b6124a9565b005b3480156106c557600080fd5b506106e060048036038101906106db91906132fb565b6124bb565b005b3480156106ee57600080fd5b506106f7612541565b6040516107049190613278565b60405180910390f35b600061071761171a565b90506000811161075c576040517f08c379a0000000000000000000000000000000000000000000000000000000008152600401610753906137f4565b60405180910390fd5b6000831161079f576040517f08c379a000000000000000000000000000000000000000000000000000000000815260040161079690613886565b60405180910390fd5b60006107aa33610bc6565b9050838110156107ef576040517f08c379a00000000000000000000000000000000000000000000000000000000081526004016107e690613918565b60405180910390fd5b60006107f9610db1565b856108049190613967565b905060007f0000000000000000000000000000000000000000000000000000000000000000905060005b60078054905081101561093357600060078281548110610851576108506139a9565b5b9060005260206000200160009054906101000a900473ffffffffffffffffffffffffffffffffffffffff16905060008190506000878273ffffffffffffffffffffffffffffffffffffffff166370a08231306040518263ffffffff1660e01b81526004016108bf91906132b4565b602060405180830381865afa1580156108dc573d6000803e3d6000fd5b505050506040513d601f19601f8201168201806040525081019061090091906139ed565b8b61090b9190613967565b6109159190613a49565b90506109238584838c61254b565b505050808060010191505061082e565b5060008461093f610f77565b8861094a9190613967565b6109549190613a49565b90506000811115610a98577f000000000000000000000000000000000000000000000000000000000000000073ffffffffffffffffffffffffffffffffffffffff16632e1a7d4d826040518263ffffffff1660e01b81526004016109b89190613278565b600060405180830381600087803b1580156109d257600080fd5b505af11580156109e6573d6000803e3d6000fd5b5050505060008673ffffffffffffffffffffffffffffffffffffffff1682604051610a1090613aab565b60006040518083038185875af1925050503d8060008114610a4d576040519150601f19603f3d011682016040523d82523d6000602084013e610a52565b606091505b5050905080610a96576040517f08c379a0000000000000000000000000000000000000000000000000000000008152600401610a8d90613b0c565b60405180910390fd5b505b7f000000000000000000000000000000000000000000000000000000000000000073ffffffffffffffffffffffffffffffffffffffff16639dc29fac33896040518363ffffffff1660e01b8152600401610af3929190613b2c565b600060405180830381600087803b158015610b0d57600080fd5b505af1158015610b21573d6000803e3d6000fd5b505050503373ffffffffffffffffffffffffffffffffffffffff167ff341246adaac6f497bc2a656f546ab9e182111d630394f0c57c710a59a2cb567878986604051610b6f93929190613bb4565b60405180910390a250505050505050565b6000600154905090565b6000600554905090565b6000600254905090565b60007f0000000000000000000000000000000000000000000000000000000000000000905090565b60007f000000000000000000000000000000000000000000000000000000000000000073ffffffffffffffffffffffffffffffffffffffff166370a08231836040518263ffffffff1660e01b8152600401610c2191906132b4565b602060405180830381865afa158015610c3e573d6000803e3d6000fd5b505050506040513d601f19601f82011682018060405250810190610c6291906139ed565b9050919050565b610c71612759565b8060058190555050565b6000806000905060005b600780549050811015610d2a576006600060078381548110610caa57610ca96139a9565b5b9060005260206000200160009054906101000a900473ffffffffffffffffffffffffffffffffffffffff1673ffffffffffffffffffffffffffffffffffffffff1673ffffffffffffffffffffffffffffffffffffffff1681526020019081526020016000205482610d1b9190613beb565b91508080600101915050610c85565b508091505090565b610d3a612759565b7f0000000000000000000000000000000000000000000000000000000000000000811115610d9d576040517f08c379a0000000000000000000000000000000000000000000000000000000008152600401610d9490613cb7565b60405180910390fd5b8060028190555050565b6000600454905090565b600080610dbc61171a565b905060008103610dd0576000915050610dee565b610dd861171a565b610de0610df1565b610dea9190613a49565b9150505b90565b6000807f000000000000000000000000000000000000000000000000000000000000000090506000610e21610f77565b905060005b600780549050811015610f3257600060078281548110610e4957610e486139a9565b5b9060005260206000200160009054906101000a900473ffffffffffffffffffffffffffffffffffffffff169050600081905060008173ffffffffffffffffffffffffffffffffffffffff166370a08231306040518263ffffffff1660e01b8152600401610eb691906132b4565b602060405180830381865afa158015610ed3573d6000803e3d6000fd5b505050506040513d601f19601f82011682018060405250810190610ef791906139ed565b905060008103610f0957505050610f25565b610f148684836127e0565b85610f1f9190613beb565b94505050505b8080600101915050610e26565b50809250505090565b60007f0000000000000000000000000000000000000000000000000000000000000000905090565b610f6b612759565b610f7560006128a7565b565b6000807f000000000000000000000000000000000000000000000000000000000000000073ffffffffffffffffffffffffffffffffffffffff166370a08231306040518263ffffffff1660e01b8152600401610fd391906132b4565b602060405180830381865afa158015610ff0573d6000803e3d6000fd5b505050506040513d601f19601f8201168201806040525081019061101491906139ed565b9050600354811161102957600091505061103b565b600354816110379190613cd7565b9150505b90565b60008060149054906101000a900460ff16905090565b60008060009054906101000a900473ffffffffffffffffffffffffffffffffffffffff16905090565b611085612759565b600081101580156110a357506004600a61109f9190613e4b565b8111155b6110e2576040517f08c379a00000000000000000000000000000000000000000000000000000000081526004016110d990613f08565b60405180910390fd5b600660008373ffffffffffffffffffffffffffffffffffffffff1673ffffffffffffffffffffffffffffffffffffffff168152602001908152602001600020548103611163576040517f08c379a000000000000000000000000000000000000000000000000000000000815260040161115a90613f9a565b60405180910390fd5b6000600660008473ffffffffffffffffffffffffffffffffffffffff1673ffffffffffffffffffffffffffffffffffffffff16815260200190815260200160002054826111b09190613fc4565b90506004600a6111c09190613e4b565b816111c9610c7b565b6111d39190614007565b1315611214576040517f08c379a000000000000000000000000000000000000000000000000000000000815260040161120b906140bd565b60405180910390fd5b600061121e610df1565b905060006004600a6112309190613e4b565b828561123c9190613967565b6112469190613a49565b9050600085905060008173ffffffffffffffffffffffffffffffffffffffff166370a08231306040518263ffffffff1660e01b815260040161128891906132b4565b602060405180830381865afa1580156112a5573d6000803e3d6000fd5b505050506040513d601f19601f820116820180604052508101906112c991906139ed565b905060007f00000000000000000000000000000000000000000000000000000000000000009050600080831161130057600061130c565b61130b828a856127e0565b5b90508481101561136057600081866113249190613cd7565b905060008190506000611335610f77565b905080821115611343578091505b600082111561135857611357858d8461296b565b5b5050506113ad565b848111156113ac57600085826113769190613cd7565b905060008285836113879190613967565b6113919190613a49565b905060008111156113a9576113a8848c833061254b565b5b50505b5b6000881480156113fc57506000600660008b73ffffffffffffffffffffffffffffffffffffffff1673ffffffffffffffffffffffffffffffffffffffff16815260200190815260200160002054115b1561158d5760005b600780549050811015611587578973ffffffffffffffffffffffffffffffffffffffff166007828154811061143c5761143b6139a9565b5b9060005260206000200160009054906101000a900473ffffffffffffffffffffffffffffffffffffffff1673ffffffffffffffffffffffffffffffffffffffff160361157a57600760016007805490506114969190613cd7565b815481106114a7576114a66139a9565b5b9060005260206000200160009054906101000a900473ffffffffffffffffffffffffffffffffffffffff16600782815481106114e6576114e56139a9565b5b9060005260206000200160006101000a81548173ffffffffffffffffffffffffffffffffffffffff021916908373ffffffffffffffffffffffffffffffffffffffff16021790555060078054806115405761153f6140dd565b5b6001900381819060005260206000200160006101000a81549073ffffffffffffffffffffffffffffffffffffffff02191690559055611587565b8080600101915050611404565b50611646565b6000881180156115dc57506000600660008b73ffffffffffffffffffffffffffffffffffffffff1673ffffffffffffffffffffffffffffffffffffffff16815260200190815260200160002054145b15611645576007899080600181540180825580915050600190039060005260206000200160009091909190916101000a81548173ffffffffffffffffffffffffffffffffffffffff021916908373ffffffffffffffffffffffffffffffffffffffff1602179055505b5b87600660008b73ffffffffffffffffffffffffffffffffffffffff1673ffffffffffffffffffffffffffffffffffffffff168152602001908152602001600020819055508873ffffffffffffffffffffffffffffffffffffffff167f7a994e2e422225102fed915394da80aeeea86e2c0ca3f41d6d48421252f83b92896040516116d09190613278565b60405180910390a2505050505050505050565b6116eb612759565b80600060146101000a81548160ff02191690831515021790555050565b611710612759565b8060048190555050565b60007f000000000000000000000000000000000000000000000000000000000000000073ffffffffffffffffffffffffffffffffffffffff166318160ddd6040518163ffffffff1660e01b8152600401602060405180830381865afa158015611787573d6000803e3d6000fd5b505050506040513d601f19601f820116820180604052508101906117ab91906139ed565b905090565b60007f0000000000000000000000000000000000000000000000000000000000000000905090565b6117e0612759565b600060035411611825576040517f08c379a000000000000000000000000000000000000000000000000000000000815260040161181c90614158565b60405180910390fd5b60035481111561186a576040517f08c379a0000000000000000000000000000000000000000000000000000000008152600401611861906141ea565b60405180910390fd5b806003600082825461187c9190613cd7565b925050819055507f000000000000000000000000000000000000000000000000000000000000000073ffffffffffffffffffffffffffffffffffffffff16632e1a7d4d826040518263ffffffff1660e01b81526004016118dc9190613278565b600060405180830381600087803b1580156118f657600080fd5b505af115801561190a573d6000803e3d6000fd5b5050505060008273ffffffffffffffffffffffffffffffffffffffff168260405161193490613aab565b60006040518083038185875af1925050503d8060008114611971576040519150601f19603f3d011682016040523d82523d6000602084013e611976565b606091505b50509050806119ba576040517f08c379a00000000000000000000000000000000000000000000000000000000081526004016119b190613b0c565b60405180910390fd5b505050565b600060149054906101000a900460ff1680611a7357503073ffffffffffffffffffffffffffffffffffffffff16638da5cb5b6040518163ffffffff1660e01b8152600401602060405180830381865afa158015611a20573d6000803e3d6000fd5b505050506040513d601f19601f82011682018060405250810190611a44919061421f565b73ffffffffffffffffffffffffffffffffffffffff163373ffffffffffffffffffffffffffffffffffffffff16145b611ab2576040517f08c379a0000000000000000000000000000000000000000000000000000000008152600401611aa9906142be565b60405180910390fd5b600154341015611af7576040517f08c379a0000000000000000000000000000000000000000000000000000000008152600401611aee90614350565b60405180910390fd5b7f000000000000000000000000000000000000000000000000000000000000000073ffffffffffffffffffffffffffffffffffffffff1663d0e30db0346040518263ffffffff1660e01b81526004016000604051808303818588803b158015611b5f57600080fd5b505af1158015611b73573d6000803e3d6000fd5b505050505060006004600a611b889190613e4b565b905060008134600254611b9b9190613967565b611ba59190613a49565b905060008134611bb59190613cd7565b90508160036000828254611bc99190613beb565b925050819055506000806000611bdd61171a565b905060008103611c225760006305f5e10090506012600a611bfe9190613e4b565b8186611c0a9190613967565b611c149190613a49565b935083915084925050611c46565b611c2a610df1565b9150818185611c399190613967565b611c439190613a49565b92505b60008311611c89576040517f08c379a0000000000000000000000000000000000000000000000000000000008152600401611c80906143bc565b60405180910390fd5b6000818385611c989190613967565b611ca29190613a49565b905060008186611cb29190613cd7565b90506000811115611df6577f000000000000000000000000000000000000000000000000000000000000000073ffffffffffffffffffffffffffffffffffffffff16632e1a7d4d826040518263ffffffff1660e01b8152600401611d169190613278565b600060405180830381600087803b158015611d3057600080fd5b505af1158015611d44573d6000803e3d6000fd5b5050505060003373ffffffffffffffffffffffffffffffffffffffff1682604051611d6e90613aab565b60006040518083038185875af1925050503d8060008114611dab576040519150601f19603f3d011682016040523d82523d6000602084013e611db0565b606091505b5050905080611df4576040517f08c379a0000000000000000000000000000000000000000000000000000000008152600401611deb90613b0c565b60405180910390fd5b505b60007f0000000000000000000000000000000000000000000000000000000000000000905060005b600780549050811015611f0a57600060078281548110611e4157611e406139a9565b5b9060005260206000200160009054906101000a900473ffffffffffffffffffffffffffffffffffffffff16905060006004600a611e7e9190613e4b565b858b611e8a9190613cd7565b600660008573ffffffffffffffffffffffffffffffffffffffff1673ffffffffffffffffffffffffffffffffffffffff16815260200190815260200160002054611ed49190613967565b611ede9190613a49565b905060008103611eef575050611efd565b611efa84838361296b565b50505b8080600101915050611e1e565b507f000000000000000000000000000000000000000000000000000000000000000073ffffffffffffffffffffffffffffffffffffffff166340c10f1933886040518363ffffffff1660e01b8152600401611f66929190613b2c565b600060405180830381600087803b158015611f8057600080fd5b505af1158015611f94573d6000803e3d6000fd5b505050503373ffffffffffffffffffffffffffffffffffffffff167f90890809c654f11d6e72a28fa60149770a0d11ec6c92319d6ceb2bb0a4ea1a158785604051611fe09291906143dc565b60405180910390a2505050505050505050565b6060806060806060600060078054905067ffffffffffffffff81111561201c5761201b614405565b5b60405190808252806020026020018201604052801561204a5781602001602082028036833780820191505090505b509050600060078054905067ffffffffffffffff81111561206e5761206d614405565b5b60405190808252806020026020018201604052801561209c5781602001602082028036833780820191505090505b509050600060078054905067ffffffffffffffff8111156120c0576120bf614405565b5b6040519080825280602002602001820160405280156120f357816020015b60608152602001906001900390816120de5790505b509050600060078054905067ffffffffffffffff81111561211757612116614405565b5b6040519080825280602002602001820160405280156121455781602001602082028036833780820191505090505b509050600060078054905067ffffffffffffffff81111561216957612168614405565b5b6040519080825280602002602001820160405280156121975781602001602082028036833780820191505090505b50905060007f0000000000000000000000000000000000000000000000000000000000000000905060005b60078054905081101561248c576000600782815481106121e5576121e46139a9565b5b9060005260206000200160009054906101000a900473ffffffffffffffffffffffffffffffffffffffff16905080888381518110612226576122256139a9565b5b602002602001019073ffffffffffffffffffffffffffffffffffffffff16908173ffffffffffffffffffffffffffffffffffffffff1681525050600660008273ffffffffffffffffffffffffffffffffffffffff1673ffffffffffffffffffffffffffffffffffffffff168152602001908152602001600020548783815181106122b3576122b26139a9565b5b60200260200101818152505060008190508073ffffffffffffffffffffffffffffffffffffffff166395d89b416040518163ffffffff1660e01b8152600401600060405180830381865afa15801561230f573d6000803e3d6000fd5b505050506040513d6000823e3d601f19601f82011682018060405250810190612338919061452b565b87848151811061234b5761234a6139a9565b5b60200260200101819052508073ffffffffffffffffffffffffffffffffffffffff166370a08231306040518263ffffffff1660e01b815260040161238f91906132b4565b602060405180830381865afa1580156123ac573d6000803e3d6000fd5b505050506040513d601f19601f820116820180604052508101906123d091906139ed565b8684815181106123e3576123e26139a9565b5b6020026020010181815250506000868481518110612404576124036139a9565b5b6020026020010151111561245b57612437848388868151811061242a576124296139a9565b5b60200260200101516127e0565b85848151811061244a576124496139a9565b5b60200260200101818152505061247d565b60008584815181106124705761246f6139a9565b5b6020026020010181815250505b505080806001019150506121c2565b5085858585859a509a509a509a509a505050505050509091929394565b6124b1612759565b8060018190555050565b6124c3612759565b600073ffffffffffffffffffffffffffffffffffffffff168173ffffffffffffffffffffffffffffffffffffffff16036125355760006040517f1e4fbdf700000000000000000000000000000000000000000000000000000000815260040161252c91906132b4565b60405180910390fd5b61253e816128a7565b50565b6000600354905090565b60008390508073ffffffffffffffffffffffffffffffffffffffff166370a08231306040518263ffffffff1660e01b815260040161258991906132b4565b602060405180830381865afa1580156125a6573d6000803e3d6000fd5b505050506040513d601f19601f820116820180604052508101906125ca91906139ed565b83111561260c576040517f08c379a0000000000000000000000000000000000000000000000000000000008152600401612603906145c0565b60405180910390fd5b600061262161261c8787876127e0565b612b20565b9050600061262f8787612b67565b90508273ffffffffffffffffffffffffffffffffffffffff1663095ea7b37f0000000000000000000000000000000000000000000000000000000000000000876040518363ffffffff1660e01b815260040161268c929190613b2c565b6020604051808303816000875af11580156126ab573d6000803e3d6000fd5b505050506040513d601f19601f820116820180604052508101906126cf91906145f5565b508673ffffffffffffffffffffffffffffffffffffffff16635c11d79586848488600454426126fe9190613beb565b6040518663ffffffff1660e01b815260040161271e959493929190614622565b600060405180830381600087803b15801561273857600080fd5b505af115801561274c573d6000803e3d6000fd5b5050505050505050505050565b612761612dce565b73ffffffffffffffffffffffffffffffffffffffff1661277f611054565b73ffffffffffffffffffffffffffffffffffffffff16146127de576127a2612dce565b6040517f118cdaa70000000000000000000000000000000000000000000000000000000081526004016127d591906132b4565b60405180910390fd5b565b6000806127ed8585612b67565b905060008573ffffffffffffffffffffffffffffffffffffffff1663d06ca61f85846040518363ffffffff1660e01b815260040161282c92919061467c565b600060405180830381865afa158015612849573d6000803e3d6000fd5b505050506040513d6000823e3d601f19601f820116820180604052508101906128729190614774565b905080600182516128839190613cd7565b81518110612894576128936139a9565b5b6020026020010151925050509392505050565b60008060009054906101000a900473ffffffffffffffffffffffffffffffffffffffff169050816000806101000a81548173ffffffffffffffffffffffffffffffffffffffff021916908373ffffffffffffffffffffffffffffffffffffffff1602179055508173ffffffffffffffffffffffffffffffffffffffff168173ffffffffffffffffffffffffffffffffffffffff167f8be0079c531659141344cd1fd0a4f28419497f9722a3daafe3b4186f6b6457e060405160405180910390a35050565b612973610f77565b8111156129b5576040517f08c379a00000000000000000000000000000000000000000000000000000000081526004016129ac90614809565b60405180910390fd5b60006129ca6129c5858585612dd6565b612b20565b905060006129d88585612e9d565b90507f000000000000000000000000000000000000000000000000000000000000000073ffffffffffffffffffffffffffffffffffffffff1663095ea7b37f0000000000000000000000000000000000000000000000000000000000000000856040518363ffffffff1660e01b8152600401612a55929190613b2c565b6020604051808303816000875af1158015612a74573d6000803e3d6000fd5b505050506040513d601f19601f82011682018060405250810190612a9891906145f5565b508473ffffffffffffffffffffffffffffffffffffffff16635c11d7958484843060045442612ac79190613beb565b6040518663ffffffff1660e01b8152600401612ae7959493929190614622565b600060405180830381600087803b158015612b0157600080fd5b505af1158015612b15573d6000803e3d6000fd5b505050505050505050565b60006004600a612b309190613e4b565b826005546004600a612b429190613e4b565b612b4c9190613cd7565b612b569190613967565b612b609190613a49565b9050919050565b606060008373ffffffffffffffffffffffffffffffffffffffff1663ad5c46486040518163ffffffff1660e01b8152600401602060405180830381865afa158015612bb6573d6000803e3d6000fd5b505050506040513d601f19601f82011682018060405250810190612bda919061421f565b90508073ffffffffffffffffffffffffffffffffffffffff168373ffffffffffffffffffffffffffffffffffffffff1603612cb6576000600167ffffffffffffffff811115612c2c57612c2b614405565b5b604051908082528060200260200182016040528015612c5a5781602001602082028036833780820191505090505b5090508181600081518110612c7257612c716139a9565b5b602002602001019073ffffffffffffffffffffffffffffffffffffffff16908173ffffffffffffffffffffffffffffffffffffffff16815250508092505050612dc8565b6000600267ffffffffffffffff811115612cd357612cd2614405565b5b604051908082528060200260200182016040528015612d015781602001602082028036833780820191505090505b5090508381600081518110612d1957612d186139a9565b5b602002602001019073ffffffffffffffffffffffffffffffffffffffff16908173ffffffffffffffffffffffffffffffffffffffff16815250507f000000000000000000000000000000000000000000000000000000000000000081600181518110612d8857612d876139a9565b5b602002602001019073ffffffffffffffffffffffffffffffffffffffff16908173ffffffffffffffffffffffffffffffffffffffff168152505080925050505b92915050565b600033905090565b600080612de38585612e9d565b905060008573ffffffffffffffffffffffffffffffffffffffff1663d06ca61f85846040518363ffffffff1660e01b8152600401612e2292919061467c565b600060405180830381865afa158015612e3f573d6000803e3d6000fd5b505050506040513d6000823e3d601f19601f82011682018060405250810190612e689190614774565b90508060018251612e799190613cd7565b81518110612e8a57612e896139a9565b5b6020026020010151925050509392505050565b606060008373ffffffffffffffffffffffffffffffffffffffff1663ad5c46486040518163ffffffff1660e01b8152600401602060405180830381865afa158015612eec573d6000803e3d6000fd5b505050506040513d601f19601f82011682018060405250810190612f10919061421f565b90508073ffffffffffffffffffffffffffffffffffffffff168373ffffffffffffffffffffffffffffffffffffffff1603612fec576000600167ffffffffffffffff811115612f6257612f61614405565b5b604051908082528060200260200182016040528015612f905781602001602082028036833780820191505090505b5090508181600081518110612fa857612fa76139a9565b5b602002602001019073ffffffffffffffffffffffffffffffffffffffff16908173ffffffffffffffffffffffffffffffffffffffff168152505080925050506130fe565b6000600267ffffffffffffffff81111561300957613008614405565b5b6040519080825280602002602001820160405280156130375781602001602082028036833780820191505090505b5090507f00000000000000000000000000000000000000000000000000000000000000008160008151811061306f5761306e6139a9565b5b602002602001019073ffffffffffffffffffffffffffffffffffffffff16908173ffffffffffffffffffffffffffffffffffffffff168152505083816001815181106130be576130bd6139a9565b5b602002602001019073ffffffffffffffffffffffffffffffffffffffff16908173ffffffffffffffffffffffffffffffffffffffff168152505080925050505b92915050565b600082825260208201905092915050565b7f44697265637420455448207472616e7366657273206e6f7420616c6c6f776564600082015250565b600061314b602083613104565b915061315682613115565b602082019050919050565b6000602082019050818103600083015261317a8161313e565b9050919050565b6000604051905090565b600080fd5b600080fd5b6000819050919050565b6131a881613195565b81146131b357600080fd5b50565b6000813590506131c58161319f565b92915050565b600073ffffffffffffffffffffffffffffffffffffffff82169050919050565b60006131f6826131cb565b9050919050565b613206816131eb565b811461321157600080fd5b50565b600081359050613223816131fd565b92915050565b600080604083850312156132405761323f61318b565b5b600061324e858286016131b6565b925050602061325f85828601613214565b9150509250929050565b61327281613195565b82525050565b600060208201905061328d6000830184613269565b92915050565b600061329e826131cb565b9050919050565b6132ae81613293565b82525050565b60006020820190506132c960008301846132a5565b92915050565b6132d881613293565b81146132e357600080fd5b50565b6000813590506132f5816132cf565b92915050565b6000602082840312156133115761331061318b565b5b600061331f848285016132e6565b91505092915050565b60006020828403121561333e5761333d61318b565b5b600061334c848285016131b6565b91505092915050565b60008115159050919050565b61336a81613355565b82525050565b60006020820190506133856000830184613361565b92915050565b600080604083850312156133a2576133a161318b565b5b60006133b0858286016132e6565b92505060206133c1858286016131b6565b9150509250929050565b6133d481613355565b81146133df57600080fd5b50565b6000813590506133f1816133cb565b92915050565b60006020828403121561340d5761340c61318b565b5b600061341b848285016133e2565b91505092915050565b6000806040838503121561343b5761343a61318b565b5b600061344985828601613214565b925050602061345a858286016131b6565b9150509250929050565b600081519050919050565b600082825260208201905092915050565b6000819050602082019050919050565b61349981613293565b82525050565b60006134ab8383613490565b60208301905092915050565b6000602082019050919050565b60006134cf82613464565b6134d9818561346f565b93506134e483613480565b8060005b838110156135155781516134fc888261349f565b9750613507836134b7565b9250506001810190506134e8565b5085935050505092915050565b600081519050919050565b600082825260208201905092915050565b6000819050602082019050919050565b61355781613195565b82525050565b6000613569838361354e565b60208301905092915050565b6000602082019050919050565b600061358d82613522565b613597818561352d565b93506135a28361353e565b8060005b838110156135d35781516135ba888261355d565b97506135c583613575565b9250506001810190506135a6565b5085935050505092915050565b600081519050919050565b600082825260208201905092915050565b6000819050602082019050919050565b600081519050919050565b600082825260208201905092915050565b60005b8381101561364657808201518184015260208101905061362b565b60008484015250505050565b6000601f19601f8301169050919050565b600061366e8261360c565b6136788185613617565b9350613688818560208601613628565b61369181613652565b840191505092915050565b60006136a88383613663565b905092915050565b6000602082019050919050565b60006136c8826135e0565b6136d281856135eb565b9350836020820285016136e4856135fc565b8060005b858110156137205784840389528151613701858261369c565b945061370c836136b0565b925060208a019950506001810190506136e8565b50829750879550505050505092915050565b600060a082019050818103600083015261374c81886134c4565b905081810360208301526137608187613582565b9050818103604083015261377481866136bd565b905081810360608301526137888185613582565b9050818103608083015261379c8184613582565b90509695505050505050565b7f4e6f20736861726573206f75747374616e64696e672e00000000000000000000600082015250565b60006137de601683613104565b91506137e9826137a8565b602082019050919050565b6000602082019050818103600083015261380d816137d1565b9050919050565b7f596f75206d7573742073656c6c206174206c65617374206f6e6520736861726560008201527f2e00000000000000000000000000000000000000000000000000000000000000602082015250565b6000613870602183613104565b915061387b82613814565b604082019050919050565b6000602082019050818103600083015261389f81613863565b9050919050565b7f53656c6c20616d6f756e742069732067726561746572207468616e206375727260008201527f656e742073686172652062616c616e63652e0000000000000000000000000000602082015250565b6000613902603283613104565b915061390d826138a6565b604082019050919050565b60006020820190508181036000830152613931816138f5565b9050919050565b7f4e487b7100000000000000000000000000000000000000000000000000000000600052601160045260246000fd5b600061397282613195565b915061397d83613195565b925082820261398b81613195565b915082820484148315176139a2576139a1613938565b5b5092915050565b7f4e487b7100000000000000000000000000000000000000000000000000000000600052603260045260246000fd5b6000815190506139e78161319f565b92915050565b600060208284031215613a0357613a0261318b565b5b6000613a11848285016139d8565b91505092915050565b7f4e487b7100000000000000000000000000000000000000000000000000000000600052601260045260246000fd5b6000613a5482613195565b9150613a5f83613195565b925082613a6f57613a6e613a1a565b5b828204905092915050565b600081905092915050565b50565b6000613a95600083613a7a565b9150613aa082613a85565b600082019050919050565b6000613ab682613a88565b9150819050919050565b7f455448207472616e73666572206661696c656400000000000000000000000000600082015250565b6000613af6601383613104565b9150613b0182613ac0565b602082019050919050565b60006020820190508181036000830152613b2581613ae9565b9050919050565b6000604082019050613b4160008301856132a5565b613b4e6020830184613269565b9392505050565b6000819050919050565b6000613b7a613b75613b70846131cb565b613b55565b6131cb565b9050919050565b6000613b8c82613b5f565b9050919050565b6000613b9e82613b81565b9050919050565b613bae81613b93565b82525050565b6000606082019050613bc96000830186613ba5565b613bd66020830185613269565b613be36040830184613269565b949350505050565b6000613bf682613195565b9150613c0183613195565b9250828201905080821115613c1957613c18613938565b5b92915050565b7f4465706f736974206665652063616e6e6f74206265207365742068696768657260008201527f207468616e207468652076616c7565206974207761732073657420746f206f6e60208201527f20636f6e7472616374206372656174696f6e2e00000000000000000000000000604082015250565b6000613ca1605383613104565b9150613cac82613c1f565b606082019050919050565b60006020820190508181036000830152613cd081613c94565b9050919050565b6000613ce282613195565b9150613ced83613195565b9250828203905081811115613d0557613d04613938565b5b92915050565b60008160011c9050919050565b6000808291508390505b6001851115613d6257808604811115613d3e57613d3d613938565b5b6001851615613d4d5780820291505b8081029050613d5b85613d0b565b9450613d22565b94509492505050565b600082613d7b5760019050613e37565b81613d895760009050613e37565b8160018114613d9f5760028114613da957613dd8565b6001915050613e37565b60ff841115613dbb57613dba613938565b5b8360020a915084821115613dd257613dd1613938565b5b50613e37565b5060208310610133831016604e8410600b8410161715613e0d5782820a905083811115613e0857613e07613938565b5b613e37565b613e1a8484846001613d18565b92509050818404811115613e3157613e30613938565b5b81810290505b9392505050565b600060ff82169050919050565b6000613e5682613195565b9150613e6183613e3e565b9250613e8e7fffffffffffffffffffffffffffffffffffffffffffffffffffffffffffffffff8484613d6b565b905092915050565b7f417373657420616c6c6f636174696f6e206d757374206265203e3d203020616e60008201527f64203c3d20312e00000000000000000000000000000000000000000000000000602082015250565b6000613ef2602783613104565b9150613efd82613e96565b604082019050919050565b60006020820190508181036000830152613f2181613ee5565b9050919050565b7f4e657720616c6c6f636174696f6e2063616e6e6f74206265207468652073616d60008201527f65206173206f6c6420616c6c6f636174696f6e00000000000000000000000000602082015250565b6000613f84603383613104565b9150613f8f82613f28565b604082019050919050565b60006020820190508181036000830152613fb381613f77565b9050919050565b6000819050919050565b6000613fcf82613fba565b9150613fda83613fba565b925082820390508181126000841216828213600085121516171561400157614000613938565b5b92915050565b600061401282613fba565b915061401d83613fba565b92508282019050828112156000831216838212600084121516171561404557614044613938565b5b92915050565b7f546f74616c20617373657420616c6c6f636174696f6e2063616e6e6f7420626560008201527f203e20312e000000000000000000000000000000000000000000000000000000602082015250565b60006140a7602583613104565b91506140b28261404b565b604082019050919050565b600060208201905081810360008301526140d68161409a565b9050919050565b7f4e487b7100000000000000000000000000000000000000000000000000000000600052603160045260246000fd5b7f43757272656e74206665652062616c616e636520697320302e00000000000000600082015250565b6000614142601983613104565b915061414d8261410c565b602082019050919050565b6000602082019050818103600083015261417181614135565b9050919050565b7f526571756573746564207769746864726177616c20616d6f756e74206578636560008201527f656473206665652062616c616e63652e00000000000000000000000000000000602082015250565b60006141d4603083613104565b91506141df82614178565b604082019050919050565b60006020820190508181036000830152614203816141c7565b9050919050565b600081519050614219816132cf565b92915050565b6000602082840312156142355761423461318b565b5b60006142438482850161420a565b91505092915050565b7f4465706f73697473206172652074656d706f726172696c792064697361626c6560008201527f642e000000000000000000000000000000000000000000000000000000000000602082015250565b60006142a8602283613104565b91506142b38261424c565b604082019050919050565b600060208201905081810360008301526142d78161429b565b9050919050565b7f4465706f73697420616d6f756e74206973206c657373207468616e207468652060008201527f6d696e696d756d206465706f7369742e00000000000000000000000000000000602082015250565b600061433a603083613104565b9150614345826142de565b604082019050919050565b600060208201905081810360008301526143698161432d565b9050919050565b7f596f75206d75737420627579206174206c65617374206f6e652073686172652e600082015250565b60006143a6602083613104565b91506143b182614370565b602082019050919050565b600060208201905081810360008301526143d581614399565b9050919050565b60006040820190506143f16000830185613269565b6143fe6020830184613269565b9392505050565b7f4e487b7100000000000000000000000000000000000000000000000000000000600052604160045260246000fd5b600080fd5b600080fd5b61444782613652565b810181811067ffffffffffffffff8211171561446657614465614405565b5b80604052505050565b6000614479613181565b9050614485828261443e565b919050565b600067ffffffffffffffff8211156144a5576144a4614405565b5b6144ae82613652565b9050602081019050919050565b60006144ce6144c98461448a565b61446f565b9050828152602081018484840111156144ea576144e9614439565b5b6144f5848285613628565b509392505050565b600082601f83011261451257614511614434565b5b81516145228482602086016144bb565b91505092915050565b6000602082840312156145415761454061318b565b5b600082015167ffffffffffffffff81111561455f5761455e613190565b5b61456b848285016144fd565b91505092915050565b7f496e73756666696369656e7420746f6b656e2062616c616e63652e0000000000600082015250565b60006145aa601b83613104565b91506145b582614574565b602082019050919050565b600060208201905081810360008301526145d98161459d565b9050919050565b6000815190506145ef816133cb565b92915050565b60006020828403121561460b5761460a61318b565b5b6000614619848285016145e0565b91505092915050565b600060a0820190506146376000830188613269565b6146446020830187613269565b818103604083015261465681866134c4565b905061466560608301856132a5565b6146726080830184613269565b9695505050505050565b60006040820190506146916000830185613269565b81810360208301526146a381846134c4565b90509392505050565b600067ffffffffffffffff8211156146c7576146c6614405565b5b602082029050602081019050919050565b600080fd5b60006146f06146eb846146ac565b61446f565b90508083825260208201905060208402830185811115614713576147126146d8565b5b835b8181101561473c578061472888826139d8565b845260208401935050602081019050614715565b5050509392505050565b600082601f83011261475b5761475a614434565b5b815161476b8482602086016146dd565b91505092915050565b60006020828403121561478a5761478961318b565b5b600082015167ffffffffffffffff8111156147a8576147a7613190565b5b6147b484828501614746565b91505092915050565b7f496e73756666696369656e7420574554482062616c616e63652e000000000000600082015250565b60006147f3601a83613104565b91506147fe826147bd565b602082019050919050565b60006020820190508181036000830152614822816147e6565b905091905056fea2646970667358221220c705b9676954f42e09773a91aac4861f5cc10887a7d7b0d58e53e9dc7d0e4d8864736f6c63430008190033608060405234801561001057600080fd5b506040516119563803806119568339818101604052810190610032919061031b565b338282816003908161004491906105b4565b50806004908161005491906105b4565b505050600073ffffffffffffffffffffffffffffffffffffffff168173ffffffffffffffffffffffffffffffffffffffff16036100c95760006040517f1e4fbdf70000000000000000000000000000000000000000000000000000000081526004016100c091906106c7565b60405180910390fd5b6100d8816100e060201b60201c565b5050506106e2565b6000600560009054906101000a900473ffffffffffffffffffffffffffffffffffffffff16905081600560006101000a81548173ffffffffffffffffffffffffffffffffffffffff021916908373ffffffffffffffffffffffffffffffffffffffff1602179055508173ffffffffffffffffffffffffffffffffffffffff168173ffffffffffffffffffffffffffffffffffffffff167f8be0079c531659141344cd1fd0a4f28419497f9722a3daafe3b4186f6b6457e060405160405180910390a35050565b6000604051905090565b600080fd5b600080fd5b600080fd5b600080fd5b6000601f19601f8301169050919050565b7f4e487b7100000000000000000000000000000000000000000000000000000000600052604160045260246000fd5b61020d826101c4565b810181811067ffffffffffffffff8211171561022c5761022b6101d5565b5b80604052505050565b600061023f6101a6565b905061024b8282610204565b919050565b600067ffffffffffffffff82111561026b5761026a6101d5565b5b610274826101c4565b9050602081019050919050565b60005b8381101561029f578082015181840152602081019050610284565b60008484015250505050565b60006102be6102b984610250565b610235565b9050828152602081018484840111156102da576102d96101bf565b5b6102e5848285610281565b509392505050565b600082601f830112610302576103016101ba565b5b81516103128482602086016102ab565b91505092915050565b60008060408385031215610332576103316101b0565b5b600083015167ffffffffffffffff8111156103505761034f6101b5565b5b61035c858286016102ed565b925050602083015167ffffffffffffffff81111561037d5761037c6101b5565b5b610389858286016102ed565b9150509250929050565b600081519050919050565b7f4e487b7100000000000000000000000000000000000000000000000000000000600052602260045260246000fd5b600060028204905060018216806103e557607f821691505b6020821081036103f8576103f761039e565b5b50919050565b60008190508160005260206000209050919050565b60006020601f8301049050919050565b600082821b905092915050565b6000600883026104607fffffffffffffffffffffffffffffffffffffffffffffffffffffffffffffffff82610423565b61046a8683610423565b95508019841693508086168417925050509392505050565b6000819050919050565b6000819050919050565b60006104b16104ac6104a784610482565b61048c565b610482565b9050919050565b6000819050919050565b6104cb83610496565b6104df6104d7826104b8565b848454610430565b825550505050565b600090565b6104f46104e7565b6104ff8184846104c2565b505050565b5b81811015610523576105186000826104ec565b600181019050610505565b5050565b601f82111561056857610539816103fe565b61054284610413565b81016020851015610551578190505b61056561055d85610413565b830182610504565b50505b505050565b600082821c905092915050565b600061058b6000198460080261056d565b1980831691505092915050565b60006105a4838361057a565b9150826002028217905092915050565b6105bd82610393565b67ffffffffffffffff8111156105d6576105d56101d5565b5b6105e082546103cd565b6105eb828285610527565b600060209050601f83116001811461061e576000841561060c578287015190505b6106168582610598565b86555061067e565b601f19841661062c866103fe565b60005b828110156106545784890151825560018201915060208501945060208101905061062f565b86831015610671578489015161066d601f89168261057a565b8355505b6001600288020188555050505b505050505050565b600073ffffffffffffffffffffffffffffffffffffffff82169050919050565b60006106b182610686565b9050919050565b6106c1816106a6565b82525050565b60006020820190506106dc60008301846106b8565b92915050565b611265806106f16000396000f3fe608060405234801561001057600080fd5b50600436106100ea5760003560e01c8063715018a61161008c5780639dc29fac116100665780639dc29fac1461023b578063a9059cbb14610257578063dd62ed3e14610287578063f2fde38b146102b7576100ea565b8063715018a6146101f55780638da5cb5b146101ff57806395d89b411461021d576100ea565b806323b872dd116100c857806323b872dd1461015b578063313ce5671461018b57806340c10f19146101a957806370a08231146101c5576100ea565b806306fdde03146100ef578063095ea7b31461010d57806318160ddd1461013d575b600080fd5b6100f76102d3565b6040516101049190610eb9565b60405180910390f35b61012760048036038101906101229190610f74565b610365565b6040516101349190610fcf565b60405180910390f35b610145610388565b6040516101529190610ff9565b60405180910390f35b61017560048036038101906101709190611014565b610392565b6040516101829190610fcf565b60405180910390f35b6101936103c1565b6040516101a09190611083565b60405180910390f35b6101c360048036038101906101be9190610f74565b6103c6565b005b6101df60048036038101906101da919061109e565b6103dc565b6040516101ec9190610ff9565b60405180910390f35b6101fd610424565b005b610207610438565b60405161021491906110da565b60405180910390f35b610225610462565b6040516102329190610eb9565b60405180910390f35b61025560048036038101906102509190610f74565b6104f4565b005b610271600480360381019061026c9190610f74565b61050a565b60405161027e9190610fcf565b60405180910390f35b6102a1600480360381019061029c91906110f5565b61052d565b6040516102ae9190610ff9565b60405180910390f35b6102d160048036038101906102cc919061109e565b6105b4565b005b6060600380546102e290611164565b80601f016020809104026020016040519081016040528092919081815260200182805461030e90611164565b801561035b5780601f106103305761010080835404028352916020019161035b565b820191906000526020600020905b81548152906001019060200180831161033e57829003601f168201915b5050505050905090565b60008061037061063a565b905061037d818585610642565b600191505092915050565b6000600254905090565b60008061039d61063a565b90506103aa858285610654565b6103b58585856106e8565b60019150509392505050565b600090565b6103ce6107dc565b6103d88282610863565b5050565b60008060008373ffffffffffffffffffffffffffffffffffffffff1673ffffffffffffffffffffffffffffffffffffffff168152602001908152602001600020549050919050565b61042c6107dc565b61043660006108e5565b565b6000600560009054906101000a900473ffffffffffffffffffffffffffffffffffffffff16905090565b60606004805461047190611164565b80601f016020809104026020016040519081016040528092919081815260200182805461049d90611164565b80156104ea5780601f106104bf576101008083540402835291602001916104ea565b820191906000526020600020905b8154815290600101906020018083116104cd57829003601f168201915b5050505050905090565b6104fc6107dc565b61050682826109ab565b5050565b60008061051561063a565b90506105228185856106e8565b600191505092915050565b6000600160008473ffffffffffffffffffffffffffffffffffffffff1673ffffffffffffffffffffffffffffffffffffffff16815260200190815260200160002060008373ffffffffffffffffffffffffffffffffffffffff1673ffffffffffffffffffffffffffffffffffffffff16815260200190815260200160002054905092915050565b6105bc6107dc565b600073ffffffffffffffffffffffffffffffffffffffff168173ffffffffffffffffffffffffffffffffffffffff160361062e5760006040517f1e4fbdf700000000000000000000000000000000000000000000000000000000815260040161062591906110da565b60405180910390fd5b610637816108e5565b50565b600033905090565b61064f8383836001610a2d565b505050565b6000610660848461052d565b90507fffffffffffffffffffffffffffffffffffffffffffffffffffffffffffffffff81146106e257818110156106d2578281836040517ffb8f41b20000000000000000000000000000000000000000000000000000000081526004016106c993929190611195565b60405180910390fd5b6106e184848484036000610a2d565b5b50505050565b600073ffffffffffffffffffffffffffffffffffffffff168373ffffffffffffffffffffffffffffffffffffffff160361075a5760006040517f96c6fd1e00000000000000000000000000000000000000000000000000000000815260040161075191906110da565b60405180910390fd5b600073ffffffffffffffffffffffffffffffffffffffff168273ffffffffffffffffffffffffffffffffffffffff16036107cc5760006040517fec442f050000000000000000000000000000000000000000000000000000000081526004016107c391906110da565b60405180910390fd5b6107d7838383610c04565b505050565b6107e461063a565b73ffffffffffffffffffffffffffffffffffffffff16610802610438565b73ffffffffffffffffffffffffffffffffffffffff16146108615761082561063a565b6040517f118cdaa700000000000000000000000000000000000000000000000000000000815260040161085891906110da565b60405180910390fd5b565b600073ffffffffffffffffffffffffffffffffffffffff168273ffffffffffffffffffffffffffffffffffffffff16036108d55760006040517fec442f050000000000000000000000000000000000000000000000000000000081526004016108cc91906110da565b60405180910390fd5b6108e160008383610c04565b5050565b6000600560009054906101000a900473ffffffffffffffffffffffffffffffffffffffff16905081600560006101000a81548173ffffffffffffffffffffffffffffffffffffffff021916908373ffffffffffffffffffffffffffffffffffffffff1602179055508173ffffffffffffffffffffffffffffffffffffffff168173ffffffffffffffffffffffffffffffffffffffff167f8be0079c531659141344cd1fd0a4f28419497f9722a3daafe3b4186f6b6457e060405160405180910390a35050565b600073ffffffffffffffffffffffffffffffffffffffff168273ffffffffffffffffffffffffffffffffffffffff1603610a1d5760006040517f96c6fd1e000000000000000000000000000000000000000000000000000000008152600401610a1491906110da565b60405180910390fd5b610a2982600083610c04565b5050565b600073ffffffffffffffffffffffffffffffffffffffff168473ffffffffffffffffffffffffffffffffffffffff1603610a9f5760006040517fe602df05000000000000000000000000000000000000000000000000000000008152600401610a9691906110da565b60405180910390fd5b600073ffffffffffffffffffffffffffffffffffffffff168373ffffffffffffffffffffffffffffffffffffffff1603610b115760006040517f94280d62000000000000000000000000000000000000000000000000000000008152600401610b0891906110da565b60405180910390fd5b81600160008673ffffffffffffffffffffffffffffffffffffffff1673ffffffffffffffffffffffffffffffffffffffff16815260200190815260200160002060008573ffffffffffffffffffffffffffffffffffffffff1673ffffffffffffffffffffffffffffffffffffffff168152602001908152602001600020819055508015610bfe578273ffffffffffffffffffffffffffffffffffffffff168473ffffffffffffffffffffffffffffffffffffffff167f8c5be1e5ebec7d5bd14f71427d1e84f3dd0314c0f7b2291e5b200ac8c7c3b92584604051610bf59190610ff9565b60405180910390a35b50505050565b600073ffffffffffffffffffffffffffffffffffffffff168373ffffffffffffffffffffffffffffffffffffffff1603610c56578060026000828254610c4a91906111fb565b92505081905550610d29565b60008060008573ffffffffffffffffffffffffffffffffffffffff1673ffffffffffffffffffffffffffffffffffffffff16815260200190815260200160002054905081811015610ce2578381836040517fe450d38c000000000000000000000000000000000000000000000000000000008152600401610cd993929190611195565b60405180910390fd5b8181036000808673ffffffffffffffffffffffffffffffffffffffff1673ffffffffffffffffffffffffffffffffffffffff16815260200190815260200160002081905550505b600073ffffffffffffffffffffffffffffffffffffffff168273ffffffffffffffffffffffffffffffffffffffff1603610d725780600260008282540392505081905550610dbf565b806000808473ffffffffffffffffffffffffffffffffffffffff1673ffffffffffffffffffffffffffffffffffffffff168152602001908152602001600020600082825401925050819055505b8173ffffffffffffffffffffffffffffffffffffffff168373ffffffffffffffffffffffffffffffffffffffff167fddf252ad1be2c89b69c2b068fc378daa952ba7f163c4a11628f55a4df523b3ef83604051610e1c9190610ff9565b60405180910390a3505050565b600081519050919050565b600082825260208201905092915050565b60005b83811015610e63578082015181840152602081019050610e48565b60008484015250505050565b6000601f19601f8301169050919050565b6000610e8b82610e29565b610e958185610e34565b9350610ea5818560208601610e45565b610eae81610e6f565b840191505092915050565b60006020820190508181036000830152610ed38184610e80565b905092915050565b600080fd5b600073ffffffffffffffffffffffffffffffffffffffff82169050919050565b6000610f0b82610ee0565b9050919050565b610f1b81610f00565b8114610f2657600080fd5b50565b600081359050610f3881610f12565b92915050565b6000819050919050565b610f5181610f3e565b8114610f5c57600080fd5b50565b600081359050610f6e81610f48565b92915050565b60008060408385031215610f8b57610f8a610edb565b5b6000610f9985828601610f29565b9250506020610faa85828601610f5f565b9150509250929050565b60008115159050919050565b610fc981610fb4565b82525050565b6000602082019050610fe46000830184610fc0565b92915050565b610ff381610f3e565b82525050565b600060208201905061100e6000830184610fea565b92915050565b60008060006060848603121561102d5761102c610edb565b5b600061103b86828701610f29565b935050602061104c86828701610f29565b925050604061105d86828701610f5f565b9150509250925092565b600060ff82169050919050565b61107d81611067565b82525050565b60006020820190506110986000830184611074565b92915050565b6000602082840312156110b4576110b3610edb565b5b60006110c284828501610f29565b91505092915050565b6110d481610f00565b82525050565b60006020820190506110ef60008301846110cb565b92915050565b6000806040838503121561110c5761110b610edb565b5b600061111a85828601610f29565b925050602061112b85828601610f29565b9150509250929050565b7f4e487b7100000000000000000000000000000000000000000000000000000000600052602260045260246000fd5b6000600282049050600182168061117c57607f821691505b60208210810361118f5761118e611135565b5b50919050565b60006060820190506111aa60008301866110cb565b6111b76020830185610fea565b6111c46040830184610fea565b949350505050565b7f4e487b7100000000000000000000000000000000000000000000000000000000600052601160045260246000fd5b600061120682610f3e565b915061121183610f3e565b9250828201905080821115611229576112286111cc565b5b9291505056fea2646970667358221220fd1d932e418867789e77773a0881d051eb2693d6f631f61514393000ffcbadde64736f6c63430008190033",
    "linkReferences": {},
    "deployedLinkReferences": {}
}